:020000040800F2
:10000000982900209D010008F71F00089F1E000886
:10001000F51F000823030008EF3A00080000000065
:10002000000000000000000000000000C1250008E2
:10003000250300080000000097230008C3250008DE
:10004000B7010008B7010008B7010008B7010008B0
:10005000B7010008B701000827030008B70100082E
:10006000B7010008B7010008B7010008B701000890
:10007000B7010008B7010008B7010008B701000880
:10008000B7010008B7010008B7010008B701000870
:100090007D3A0008B7010008B7010008B701000861
:1000A000B7010008B7010008B7010008B701000850
:1000B000B7010008B7010008B7010008B701000840
:1000C000B7010008B7010008B7010008B701000830
:1000D000B7010008B7010008B7010008B701000820
:1000E000B7010008B7010008B7010008B701000810
:1000F000B7010008B7010008B7010008B701000800
:10010000000000000000000000000000B70100082F
:10011000B7010008B7010008B7010008B7010008DF
:10012000B7010008B7010008B7010008B7010008CF
:10013000B7010008B701000800000000000000003F
:10014000B7010008B7010008B7010008000000006F
:10015000000000000000000000000000000000009F
:100160000000000000000000B7010008B70100080F
:10017000B7010008000000000000000000000000BF
:1001800000000000B7010008DFF80CD000F08CF888
:1001900000480047313B0008982900200648804766
:1001A00006480047FEE7FEE7FEE7FEE7FEE7FEE75C
:1001B000FEE7FEE7FEE7FEE74126000889010008AA
:1001C0002DE9F05F0546002092469B46884606468C
:1001D000814640241BE0284641464746224600F01F
:1001E00020F853465A46C01A914110D3114618467A
:1001F000224600F04AF82D1A67EB01084F462246C6
:100200000120002100F041F817EB00094E41201EAB
:10021000A4F10104DFDC484631462A464346BDE8E6
:10022000F09F202A04DB203A21FA02F000217047D7
:1002300021FA02F3D040C2F120029140084319464E
:10024000704740EA01039B0703D009E008C9121F69
:1002500008C0042AFAD203E011F8013B00F8013B80
:10026000521EF9D27047D2B201E000F8012B491EAC
:10027000FBD270470022F6E710B513460A46044643
:100280001946FFF7F0FF204610BD202A04DB203A74
:1002900000FA02F1002070479140C2F1200320FAD9
:1002A00003F3194390407047064C074D06E0E068A1
:1002B00040F0010394E8070098471034AC42F6D3AD
:1002C000FFF766FF383C0008583C000870B58C18F2
:1002D00010F8015B15F0070301D110F8013B2A115A
:1002E00006D110F8012B03E010F8016B01F8016B47
:1002F0005B1EF9D12B0705D40023521E0DD401F843
:10030000013BFAE710F8013BCB1A921C03E013F80B
:10031000015B01F8015B521EF9D5A142D8D3002040
:1003200070BDFEE77047012000F01AB872B6FEE714
:1003300070B5044600F00EF90546601C02D0044872
:100340000078044400F006F9401BA042FAD370BDC7
:10035000540000200149012008707047000000206F
:10036000044910B50A68024202D00860FFF7F2FFA4
:1003700010BD0000140401402DE9F04FDFF8AC91EE
:10038000002309F1040A03250AF1040B85B04FF09C
:10039000010C0F270BF1040EBFE000BF0CFA03F6AF
:1003A000324075D00C7904F00304012C01D0022CEA
:1003B0001BD1846800945C0005FA04F80494009C46
:1003C00024EA08040094D1F80C80049C08FA04F88C
:1003D000009C48EA0408C0F808804468B4430E79D9
:1003E000C6F300169E40264346600C79E443A407FA
:1003F0000AD0C4684FEA430805FA08F6B4438E6889
:1004000006FA08F62643C6600C7904F00304022CB1
:1004100010D1DC0800EB84040294246A5E074FEAE2
:10042000D66807FA08F6B4430E6906FA08F62643BA
:10043000029C266204684FEA430805FA08F6B443B2
:100440000E7906F0030606FA08F6264306604C68A5
:1004500014F4403F60D0364CA66946F00106A66110
:10046000A46923F0030604F001040094314C3444E1
:100470000294A4689E074FEA167807FA08F6B44378
:10048000B0F1904F05D02C4EB04204D1012612E0BD
:1004900042E000260FE0294EB04201D102260AE0D8
:1004A000274EB04201D1032605E0264EB04201D1CD
:1004B000042600E0052606FA08F62643029CA660FC
:1004C000D9F800604C46D1F8048096435FEAC838FA
:1004D00000D516432660DAF800405646D1F804806D
:1004E00094435FEA883800D514433460DBF8004059
:1004F0005E46D1F8048094435FEAC82800D51443CF
:100500003460DEF800407646D1F8048094435FEA18
:10051000882800D5144334605B1C0A6832FA03F45F
:100520007FF43CAF05B0BDE8F08F0000000401404F
:10053000001002400000014000040048000800488C
:10054000000C0048001000480AB1816170478162C8
:100550007047000001488068704700005400002088
:10056000024881680278114481607047540000207D
:10057000074810B5016841F010010160032000F048
:100580006DF8002000F006F800F024F8002010BDFF
:100590000020024070B50D4D04464FF47A71287862
:1005A000B1FBF0F00A490968B1FBF0F001F063FC1F
:1005B00048B9102C07D200222146501E00F02EF818
:1005C00000206C6070BD012070BD00005400002050
:1005D00060000020094808B5816941F0010181618E
:1005E000816901F001010091C16941F08051C1614F
:1005F000C06900F08050009008BD0000001002406B
:10060000002809DB00F01F02012191404009800011
:1006100000F1E020C0F8001170470000F0B40E4B6C
:100620001B680C46C3F30223C3F10705042D00D950
:100630000425191D072901D2002300E0DB1E012635
:1006400006FA05F1491E214099409E40761E16404B
:100650003143F0BC03F04CBA0CED00E0064900F069
:10066000070208684FF6FF03184040EA0220034AD9
:1006700010430860704700000CED00E00000FA0530
:1006800010B50C0607D501F0070101EB810100EB65
:10069000C100283005E001EB810100EBC10000F54D
:1006A000B47099B232B1012202730181190C4181F7
:1006B000002010BD00220273C180F9E7704701EBF2
:1006C000810200EBC202D0F8E802D26B02F0FFB95F
:1006D00001EB810200EBC202D0F8E802D2F87C21E3
:1006E00002F058BA70B504460B0601F0070000EBA3
:1006F000800104EBC1014FF001024FF0000503D56A
:1007000081F82920283103E081F8695101F5B4719D
:10071000087094F8A802012808D084F8A82220685C
:1007200002F070FE84F8A852002070BD022070BD57
:1007300070B5044601F00F006268904201D90120B3
:1007400070BD0B0601F0070000EB800104EBC10156
:100750004FF001024FF0000503D581F82920283120
:1007600003E081F8695101F5B4718D70087094F857
:10077000A802012808D084F8A822206802F0DBFE35
:1007800084F8A852002070BD022070BD2DE9F05FF2
:1007900004685FEA424C0B788D69B4F850C04FF0A2
:1007A00000064BF68F7948F2800A48F68F7B48F2B4
:1007B000C00E4FF480672AD54FF0020808EBC3083B
:1007C000C44407EB4C07E45BC4F30904A54203D31C
:1007D0002D1B8D6101D00BE08E61066836F8235029
:1007E00005EA090585F4005545EA0A0526F823506F
:1007F000520609D50D78036833F8252002EA0B026A
:1008000042EA0E0223F8252084B30A8929E04FF03A
:10081000060808EBC308C44407EB4C07E45BC4F3C9
:100820000904A54203D32D1B8D6101D00BE08E611D
:10083000066836F8235005EA090585F4005545EAAF
:100840000A0526F82350520609D40B78056835F8B6
:10085000232002EA0B0242EA0E0225F823202CB1E3
:100860004A8949690068234603F012F92046BDE829
:10087000F09F2DE9F05F054600680C465FEA426C88
:1008800016468B692278B0F850C048F68F774CF244
:1008900080094FF6FF7B4FF4004E4FF4806A4FF013
:1008A00000017BD54FF0020808EBC208E0440AEBD8
:1008B000480C30F80C00C0F30900834211D91B1A10
:1008C000A3610FD0730407D52E6836F822303B4061
:1008D00043EA090326F8223094F82420012A50D054
:1008E0004EE1A161607810B1012813D01AE02868A8
:1008F000B0F85030184400EB0210B0F8042422F491
:10090000F842A0F80424B0F8042442F40042A0F80D
:10091000042407E02868B0F85030184400EB0210B7
:10092000A0F804146278286812B1012A11D018E0E6
:10093000B0F850100844217800EB0110B0F80C1406
:1009400021F4F841A0F80C14B0F80C1441F4004163
:1009500005E0B0F850201044227800EB0210A0F817
:100960000C1421782846FFF7AAFE7004B8D5217828
:100970002A6832F82100384040EA090022F82100B4
:10098000FEE0626902446261E2690244E261236955
:10099000226A9A4203D31846111A04E038E084F818
:1009A00024100AB110462162617811B1012923D0C7
:1009B0002BE02968B1F850201144227801EB021194
:1009C00001F2044148B13E280FD84208C30700D0C5
:1009D000521C0BEA82220A8017E00A8822F4F842AD
:1009E0000A800A8842F40042F5E74209C30600D1B2
:1009F000521E4EEA8222EEE72968B1F850201144D7
:100A0000227801EB0211A1F8040483B22289B3E039
:100A10004FF0060808EBC208E0440AEB480C30F837
:100A20000C00C0F30900834211D31B1AA3610FD03D
:100A3000730407D42E6836F822303B4043EA09039A
:100A400026F8223094F82420012A50D098E0A161A1
:100A5000607810B1012813D01AE02868B0F850303F
:100A6000184400EB0210B0F8042422F4F842A0F875
:100A70000424B0F8042442F40042A0F8042407E05F
:100A80002868B0F85030184400EB0210A0F80414A5
:100A90006278286812B1012A11D018E0B0F850101D
:100AA0000844217800EB0110B0F80C1421F4F8414F
:100AB000A0F80C14B0F80C1441F4004105E0B0F8B3
:100AC00050201044227800EB0210A0F80C1421787A
:100AD0002846FFF7F4FD700452D42278296831F8D3
:100AE0002200384040EA090021F8220048E062690B
:100AF00002446261E2690244E2612369226A9A4225
:100B000003D31846111A216204E00AB1104621628B
:100B100084F824106278296812B1012A22D029E0D1
:100B2000B1F850201144227801EB021101F20C417E
:100B300048B13E280FD84208C30700D0521C0BEA28
:100B400082220A8016E00A8822F4F8420A800A8883
:100B500042F40042F5E74209C30600D1521E4EEAB4
:100B60008222EEE7B1F850201144227801EB021105
:100B7000A1F80C04628983B26169286802F0A4FFBD
:100B800021782A6832F8210048F6BF73184080F0B7
:100B9000300048F28003184322F821000020BDE80D
:100BA000F09F2DE9F04104460F0601F0070000EB2D
:100BB000800104EBC1014FF001064FF0000503D5A1
:100BC00081F82960283103E081F8695101F5B47199
:100BD00008700A61CB704A7802B1C881022B00D13B
:100BE0000D7194F8A802012809D084F8A862206841
:100BF00002F0D2FA284684F8A852BDE8F08102201B
:100C0000FBE770B50C4601F0070505EB850100EB2D
:100C1000C101C1E95F230022C1F8842181F8692163
:100C200081F8685101F5B4716207006802F0D8FCE0
:100C3000002070BD70B5044601F007006268904264
:100C400001D9012070BD0B064FF000054FF00102E5
:100C500007D500EB800104EBC10181F82920283180
:100C600007E001EB810104EBC10181F8695101F555
:100C7000B4718A70087094F8A802012808D084F82A
:100C8000A822206802F093FC84F8A852002070BDCE
:100C9000022070BD70B50C4601F0070505EB85011B
:100CA00000EBC101C1E90F23012281F84C208B64C4
:100CB00000234B6481F8292001F8285F620700684F
:100CC00002F08EFC002070BD10B50446006802F0F2
:100CD000DBFE000402D5204601F08EF9206802F008
:100CE000D3FE40050CD5206830F8441F21F4806104
:100CF0000180204600F0F6F80021204600F00DF9B2
:100D0000206802F0C1FE400405D5206830F8441F79
:100D100021F480410180206802F0B6FE800405D5F0
:100D2000206830F8441F21F400510180206802F04F
:100D3000ABFEC00414D5206830F8401F21F0040138
:100D40000180206830F8401F21F008010180204612
:100D500000F0DBF8206830F8441F21F48051018056
:100D6000206802F091FE000514D5206830F8401F7D
:100D700041F008010180206830F8441F21F400612F
:100D80000180206830F8401F41F0040101802046B6
:100D900000F0F8F8206802F077FE800508D520689A
:100DA00030F8441F21F400710180204600F0B1F8B2
:100DB000206802F069FEC00505D5206830F8441FA0
:100DC00021F48071018010BD70B586B0040004D09C
:100DD00094F8A902002518B107E0012006B070BD03
:100DE00084F8A852204600F043F8032084F8A902B2
:100DF000206802F099FB002001260EE000EB800144
:100E000004EBC10181F8296001F8280FC881CD7079
:100E10000D614D61401CC0B28D6161688142EDD8A9
:100E2000002011E000EB800104EBC10181F8695161
:100E300081F8680181F86B51C1F87851C1F87C5193
:100E4000401CC0B2C1F8805161688142EAD81422C6
:100E500004F110016846FFF7F4F994E80F0002F07E
:100E60005AFB84F8245084F8A9620020B6E70000F9
:100E700010B586B0044614216846FFF7FBF9174900
:100E80002068884228D1164C606940F400306061C7
:100E90006069694600F4003005904FF4C05000903E
:100EA0000220019000200290032003900E20049065
:100EB0004FF09040FFF760FAE06940F40000E06115
:100EC000E069002200F40000059011461420FFF7AD
:100ED000A5FB1420FFF794FB06B010BD005C00409A
:100EE0000010024070B5044680680125022801D038
:100EF000FFF71CFA2946D4F8E80201F024FFD4F8E1
:100F0000E802BDE8704001F0E0BED0F8E80201F070
:100F100004BFD0F8E80201F00ABF10B5044690F80B
:100F2000A80201280BD0012084F8A80284F824101C
:100F3000206802F0C3FD002084F8A80210BD022042
:100F400010BDD0F8E82200F52C71104601F007BF63
:100F500010B5044690F8A802012810D0012084F8AA
:100F6000A802206802F080FD01212046FFF7A6FBC1
:100F7000206802F0CEFA002084F8A80210BD0220FA
:100F800010BD000010B50446D0F8E80201F026FFBD
:100F9000A069002804D00348016841F006010160FF
:100FA00010BD000010ED00E02DE9F84F0446006888
:100FB0000026804DC0036ED5E869C00008D4E869FA
:100FC00040F08050E861E869012600F08050009010
:100FD00079480168C90512D40168804641F48071DE
:100FE0000160FFF7B7FA074605E000BFFFF7B2FA66
:100FF000C01B642835D8D8F80000C005F6D5286A8B
:1010000010F4407053D0A18801F4407181424ED059
:10101000286A4FF4803191FAA1F2B2FA82F2970075
:10102000664A4FF00108174420F44070C7F8008466
:1010300091FAA1F1B1FA81F102EB81010023C1F82B
:1010400000342862C00732D0FFF784FA074641F225
:10105000883A4FF0020907E0FFF77CFAC11B5145BF
:1010600002D90320BDE8F88F99FAA9F0B0FA80F010
:1010700040F040024946B8EB521F01D12A680CE00B
:1010800091FAA1F2B2FA82F242F04002B1EB521FA1
:1010900002D12A6A01E015E06A6A99FAA9F1B1FA67
:1010A00081F101F01F0108FA01F00242D4D0286A50
:1010B000616820F44070084328621EB1E86920F09E
:1010C0008050E8612078C00705D0286BA16820F027
:1010D0000300084328632078800705D5286BE16862
:1010E00020F44030084328632078400705D5286B5A
:1010F000216920F44020084328632078800605D524
:10110000286BE16920F01000084328632068800301
:1011100005D56868A16B20F48000084368602078DA
:10112000400605D5286B216A20F02000084328637B
:101130002078000705D5286B616920F4401008432A
:1011400028632078C00605D5286BA16920F44000EB
:10115000084328632088800505D56868E16A20F483
:101160000000084368602078000605D5E86A616AD7
:1011700020F4F8700843E8622088C00505D5E86AC5
:10118000A16A20F478500843E8622088C00405D59D
:10119000286B216B20F4807008432863208880042A
:1011A00005D5286B616B20F400700843286300208C
:1011B00058E700000010024000700040000042426A
:1011C0002DE9F0470F46050069D04A4E306800F01F
:1011D0000700B84209D2306820F007003843306079
:1011E000306800F00700B84259D12878424C800797
:1011F00005D56068A96820F0F00008436060287891
:10120000C0073DD06968012001290DD0022923D0F3
:101210005FF0020393FAA3F2B2FA82F242F02002E4
:10122000520904D0226803E04FF40033F2E7626A07
:1012300093FAA3F3B3FA83F303F01F039840024237
:101240002DD0606820F0030008436060FFF782F94A
:10125000804641F288390CE04FF00073DAE700BFB6
:10126000FFF778F9A0EB0801494502D90320BDE852
:10127000F0876068696800F00C00B0EB810FEFD177
:10128000306800F00700B8420BD9306820F0070042
:1012900038433060306800F00700B84201D00120C8
:1012A000E5E72878400705D56068E96820F4E06044
:1012B000084360602878000706D56068296920F433
:1012C000605040EAC100606000F01EF86168F022E2
:1012D00092FAA2F201F0F001B2FA82F2D140074A8A
:1012E000515CC8400649086006480068FFF752F99B
:1012F0000020BCE70020024000100240283C00080B
:101300006000002058000020164A10B551681648A9
:1013100001F00C03042B20D0082B1ED14FF47014C5
:1013200094FAA4F401F47013B4FA84F4E3400F4C7B
:10133000D26AE45C0F2393FAA3F302F00F02B3FA2C
:1013400083F3DA40094B1033C9039A5C06D50023B6
:101350001946FEF735FFA0FB040110BD0448A4FBAD
:10136000000110BD0010024000127A00083C000885
:1013700000093D002DE9F84F050071D02878FC4E9A
:10138000C0074FF0010425D070686704C0F38100E6
:10139000012807D07068C0F3810002281BD1706853
:1013A000C00318D597FAA7F0B0FA80F040F02000FB
:1013B000400901D0306800E0706A97FAA7F1B1FAED
:1013C00081F101F01F0104FA01F1084265D068685B
:1013D0000028D2D061E06868B0F5803F0BD010B132
:1013E000B0F5A02F17D0306820F48030306030681E
:1013F00020F4802002E0306840F480303060F06AF1
:10140000A96820F00F000843F062686820B3FFF776
:10141000A1F880460AE0306840F480203060EAE7B6
:10142000FFF798F8A0EB0800642871D897FAA7F0A6
:10143000B0FA80F040F02000400901D0306800E0B0
:10144000706A97FAA7F1B1FA81F101F01F0104FA6D
:1014500001F10842E4D020E0FFF77CF8804607E085
:10146000C2E000BFFFF776F8A0EB08006428DCD8E4
:1014700097FAA7F0B0FA80F040F02000400901D0C0
:10148000306800E0706A97FAA7F1B1FA81F101F0D3
:101490001F0104FA01F10842E4D12878DFF8D48270
:1014A00080074FF0000A4FF0020730D570684FF008
:1014B000F80B10F00C0F07D07068C0F38100022801
:1014C00027D17068C00324D497FAA7F0B0FA80F04F
:1014D00040F02000400901D0306800E0706A97FABF
:1014E000A7F1B1FA81F101F01F0104FA01F10842FC
:1014F00002D02869012877D130689BFAABF220F03E
:10150000F8016869B2FA82F29040014331605AE012
:1015100064E1286988B394FAA4F0B0FA80F048F83E
:101520002040FFF717F8814606E000BFFFF712F8EA
:10153000A0EB090002289AD897FAA7F0B0FA80F039
:1015400040F02000400901D0306800E0706A97FA4E
:10155000A7F1B1FA81F101F01F0104FA01F108428B
:10156000E4D030689BFAABF26969B2FA82F220F0FB
:10157000F80091400843306025E0FFE794FAA4F0BA
:10158000B0FA80F048F820A0FEF7E4FF814605E0BD
:10159000FEF7E0FFA0EB09000228CCD897FAA7F0ED
:1015A000B0FA80F040F02000400901D0306800E03F
:1015B000706A97FAA7F1B1FA81F101F01F0104FAFC
:1015C00001F10842E4D1287800076CD5A869A8B3D6
:1015D00094FAA4F0B0FA80F008EB8000C0F88044E0
:1015E000FEF7B8FF814607E0A4E100BFFEF7B2FFB7
:1015F000A0EB090002289ED897FAA7F0B0FA80F075
:1016000040F06000B4EB501F01D130680BE097FA56
:10161000A7F0B0FA80F040F06000B7EB501F01D1A6
:10162000306A00E0706A97FAA7F1B1FA81F101F02F
:101630001F0104FA01F21042D8D034E0FFE794FA17
:10164000A4F1B1FA81F108EB8101C1F880A4FEF7A1
:1016500081FF814606E000BFFEF77CFFA0EB09009A
:1016600002289AD897FAA7F0B0FA80F040F060000C
:10167000B4EB501F01D130680BE097FAA7F0B0FA35
:1016800080F040F06000B7EB501F01D1306A00E0FD
:10169000706A97FAA7F1B1FA81F101F01F0104FA1B
:1016A00001F21042D8D12878400768D5F0694FF090
:1016B0000009C00009D4F06940F08050F061F06981
:1016C0004FF0010900F0805000902B480168C905D7
:1016D00012D4016841F480710160FEF73BFF83463C
:1016E00006E000BFFEF736FFA0EB0B00642875D8BC
:1016F00021480068C005F5D5E86801280AD008B17E
:10170000052811D0306A20F001003062306A20F0E4
:10171000040002E0306A40F001003062E86868B31B
:10172000FEF718FF83460DE0306A40F00400306297
:10173000F0E700BFFEF70EFFA0EB0B0141F288308F
:1017400081424BD897FAA7F0B0FA80F040F0400001
:10175000B4EB501F01D1306813E097FAA7F0B0FA4C
:1017600080F040F04000B7EB501F09D1306A08E02C
:101770000010024000004242007000400CE040E0D7
:10178000706A97FAA7F1B1FA81F101F01F0104FA2A
:1017900001F21042CED02DE0FEF7DCFE834607E0DA
:1017A000FEF7D8FEA0EB0B0141F28830814215D83C
:1017B00097FAA7F0B0FA80F040F04000B4EB501F69
:1017C00001D130680CE097FAA7F0B0FA80F040F051
:1017D0004000B7EB501F02D1306A01E083E0706A2D
:1017E00097FAA7F1B1FA81F101F01F0104FA01F2B1
:1017F0001042D5D1B9F1000F03D0F06920F080502C
:10180000F061E86980B37168C1F38101022977D082
:101810004FF080714F000228504609D091FAA1F193
:10182000B1FA81F148F82100FEF794FE05465DE02B
:10183000894691FAA1F1B1FA81F1C24648F8210036
:10184000FEF788FE804605E0FEF784FEA0EB080068
:10185000022848D897FAA7F0B0FA80F040F02000AC
:10186000400902D0306801E066E0706A97FAA7F19B
:10187000B1FA81F101F01F0104FA01F10842E3D14C
:10188000D5E908100843716821F4741108437060A9
:1018900099FAA9F0B0FA80F04AF82040FEF75AFE13
:1018A000054604E0FEF756FE401B02281BD897FAB7
:1018B000A7F0B0FA80F040F02000400901D0306875
:1018C00000E0706A97FAA7F1B1FA81F101F01F0107
:1018D00004FA01F10842E5D02EE000BFFEF73AFE1F
:1018E000401B022802D90320BDE8F88F97FAA7F021
:1018F000B0FA80F040F02000400902D0306801E0EA
:101900000BE0706A97FAA7F1B1FA81F101F01F01BB
:1019100004FA01F10842E1D10EE00128E4D0706838
:101920002A6A00F48031914204D1696A00F470108F
:10193000884201D00120D7E70020D5E770B5040028
:1019400009D0606A002540B125616561A56294F8FF
:101950005D0040B10CE0012070BD6068B0F5827F91
:10196000F4D0E561F2E784F85C50204600F05CF8C2
:10197000022084F85D002068016821F040010160C8
:10198000E1684FF4E062914201D9002001E04FF498
:101990008050B1F5706F02D0914200D0A562A1884D
:1019A000228901F4827102F404421143227C02F084
:1019B00002021143227D02F001021143228B02F444
:1019C00000721143227F02F03802114394F8202064
:1019D00002F080021143228D02F40052114322686A
:1019E0001160A169042202EA114194F8242000F454
:1019F000805002F01002114394F8342002F00802E3
:101A00001143A28902F470621143014320684160CE
:101A10002068C16921F40061C1612566012084F854
:101A20005D00002070BD000010B586B00446142192
:101A30006846FEF71FFC1349206888421FD11248F0
:101A4000816941F480518161816901F4805105917E
:101A5000416941F4003141614069694600F4003058
:101A60000590E020009002200190002002900320C9
:101A70000390052004904FF09040FEF77DFC06B0E7
:101A800010BD000000300140001002402DE9F84F69
:101A9000044690F85C0000271D461646894601283A
:101AA0000DD04FF0010B84F85CB0FEF753FD80467B
:101AB00094F85D00BA46012804D00227A4E0022071
:101AC000BDE8F88FB9F1000F74D0002E72D003205A
:101AD00084F85D00C4F860A0C4F83890A687E68753
:101AE000C4F840A0A4F844A0A4F846A0C4F850A0AC
:101AF000C4F84CA0A068B0F5004F09D12068016877
:101B000021F0400101602068016841F480410160DA
:101B100020680168490603D4016841F04001016072
:101B2000E068B0F5E06F606823D908B1012E1CD1E0
:101B3000A06B21680088C86006E02068816889077A
:101B400009D5A16B0988C160A06B801CA063E08FE0
:101B5000401EE08709E0FEF7FDFCA0EB0800A8426C
:101B600002D3681C01D046E0ADB3E08F0028E4D179
:101B700036E008B1012E30D1E08F0128A06B03D9E7
:101B800021680088C8600FE021680078087314E0BD
:101B9000E08722E020688168890714D5E18F012958
:101BA000A16B08D90988C160A06B801CA063E08F7D
:101BB000801EEDE727E009780173A06B401CA0634D
:101BC000E08F401EE4E7FEF7C5FCA0EB0800A8424A
:101BD00002D3681C01D00EE06DB1E08F0028D9D18E
:101BE00042462946204600F0FBFB08B12020206633
:101BF000A06810B105E0032706E02068C16880688E
:101C00000090206E00B1012784F85DB084F85CA0DC
:101C1000384655E72DE9F05F044690F85C00002750
:101C20000A9E1D4692468B464FF0010901280ED0B0
:101C3000012084F85C00FEF78DFC804694F85D007E
:101C4000616801280CD0B1F5827F07D102E0022043
:101C5000BDE8F09FA16809B9042801D0022700E17E
:101C6000BBF1000F24D0BAF1000F21D005B394F8D6
:101C70005D00042802D0052084F85D000020206665
:101C8000C4F840A0A4F84650A4F84450C4F838B0B2
:101C9000E587A587E0642065E0684FF4E06188424D
:101CA00001D8012D06D92068426822F4805205E04F
:101CB0000127D6E02068426842F4805242602068E2
:101CC0000268520603D4026842F040020260E068F3
:101CD0008842606845D908B1012D3AD1A06B2168CE
:101CE0000088C860A06B801CA063E08F401EE08766
:101CF0002FE02068816889070FD5E18F69B1B9F1BC
:101D0000010F0AD1A16B0988C160A06B801CA06380
:101D1000E08F401EE0874FF0000920688168C90706
:101D20000FD0B4F8461061B1C068216C0880206CF7
:101D3000801C2064B4F84600401EA4F846004FF012
:101D40000109FEF707FCA0EB0800B04201D3701CAC
:101D500075D1E08F0028CCD1B4F846000028C8D156
:101D600076E008B1012D6CD1E08F0128A06B08D975
:101D700021680088C860A06B801CA063E08F801E73
:101D800007E0216800780873A06B401CA063E08F17
:101D9000401EE08755E02068816889071AD5E18FE9
:101DA000C1B1B9F1010F15D1E18F0129A16B07D99B
:101DB0000988C160A06B801CA063E08F801E06E0D4
:101DC00009780173A06B401CA063E08F401EE08780
:101DD0004FF0000920688168C90728D0B4F8461080
:101DE00029B3B4F84610012914D9C068216C0880C1
:101DF000206C801C2064B4F84600801EA4F84600C5
:101E0000B4F84600012810D82068416841F4805198
:101E100041600AE0007B216C0870206C401C20644B
:101E2000B4F84600401EA4F846004FF00109FEF742
:101E300091FBA0EB0800B04202D3701C01D018E067
:101E4000BEB1E08F0028A6D1B4F846000028A2D188
:101E500042463146204600F0C3FA10B10127202047
:101E60002066012084F85D00002084F85C0038467C
:101E7000EEE60327F5E710B5401EB0F1807F01D3F1
:101E8000012010BD4FF0E02460610F21601701F0C8
:101E90002FFE0020A06107202061002010BDFEE77A
:101EA000F0B500230A24302537261F4611E000BF75
:101EB000B4EB107F02D905EB107C01E006EB107C3F
:101EC00001F813C001EB430C00015B1C8CF801709E
:101ED000DBB29342ECD3F0BD70B586B014216846F6
:101EE000FEF7C8F91E48416941F40011416141699A
:101EF00001F400110591416941F48001416141699A
:101F000001F480010591416941F40031416140696A
:101F1000144E00F400300590012208213046FEF7EF
:101F200013FB0820012400258DE8310003200390D5
:101F300069463046FEF720FA4FF40410CDE9004020
:101F4000694602954FF09040FEF716FA00221146BE
:101F50000620FEF763FB0620FEF752FB06B070BDBD
:101F60000010024000100048114810B50F490160F0
:101F70004FF48271416000214FF4E062C0E9021227
:101F80004FF400720161C0E905120822C0E907217F
:101F900007234162C0E90A13C0E90C12FFF7CEFC27
:101FA000002801D072B6FEE710BD000000300140ED
:101FB0007001002010B500220B490C4800F060FDB4
:101FC00008B1FEF7B3F90A49084800F02DFF08B13F
:101FD000FEF7ACF9054800F07DFF002803D0BDE80E
:101FE0001040FEF7A3B910BD04000020D40100206A
:101FF00068000020FEE7FEE72DE9F84F044640F6B2
:102000008F7A48F60F794FF480684FF0000BB9E1F2
:10201000B0F8441011F00F063BD030F826703904A8
:102020007ED530F8261001EA0A0141F0800120F83F
:10203000261006EB860004EBC00595F8740105F543
:10204000B47500286DD0E87802286BD02A78216812
:1020500031F8220048F68F73184048F2C003184345
:1020600021F822002878D4F800C03CF82010BCF8F1
:10207000502049047ED5022101EBC000111808EB65
:1020800041003CF800008005800D009073D02A8943
:10209000D8E0C9062DD4018801EA090141F40041C4
:1020A0000180216804F12805B1F850302A78022017
:1020B00000EBC2001A1808EB4200085AC0F30900EE
:1020C0006064E16B0844E06300212046FEF7F7FA04
:1020D00094F8240000289AD0A869002897D194F891
:1020E000240040F080012068A0F84C1084F824B04F
:1020F00048E1018804F5B4750A0521D5B0F85020EF
:102100002B78062101EBC3010A4408EB4201405A37
:1021100004F52C71C0F30903EB61EA88206802E042
:10212000ACE068E07AE001F0B3FC2168088800EADE
:102130000A0040F0800008802046FEF702FF21E1FF
:102140000904D5D5018801EA0A0141F08001018026
:102150002068B0F850202B78062101EBC3010A4417
:1021600008EB4201405A83059B0DEB6110D0696971
:1021700071B101E059E057E0EA88206801F088FC7D
:10218000E96968690844686100212046FEF7A0FA01
:10219000206801880905ABD4B0F8501008442969BB
:1021A00000F20C4051B13E2910D84A08C90700D0AE
:1021B000521C4FF6FF7101EA82210FE0018821F4E1
:1021C000F8410180018841F4004107E04A09C9064D
:1021D00000D1521E4FF4004141EA82210180216862
:1021E00008884BF68F72104080F4405048F280020D
:1021F00010430880C6E02068B0F850102A78062303
:1022000003EBC2020A4408EB4201415A8905890DD9
:1022100000911CD0EA886969009B16E03A4629467D
:102220002046FEF7B3FA009011E0062101EBC00052
:10223000111808EB41003CF800008005800D00906B
:1022400005D06A8903466046696901F021FCE969A5
:1022500000980844E8616969009808446861A869C1
:1022600018B129690098814204D929782046FEF7DF
:102270002FFA03E02946206801F0B2F9380675D537
:10228000226806EB860004EBC00132F8260000EA63
:10229000090040F4004022F8260091F82B00283174
:1022A000022845D05A46C1F818B0780620D548789B
:1022B00010B1012812D05CE02068B0F85020104422
:1022C0000A7800EB0210B0F8042422F4F842A0F8D7
:1022D0000424B0F8042442F4004206E02068B0F878
:1022E000503018440B7800EB0310A0F8042440E0B1
:1022F0004B78206813B1012B11D03AE0B0F8502090
:1023000010440A7800EB0210B0F80C2422F4F842D2
:10231000A0F80C24B0F80C2442F4004205E0B0F818
:10232000503018440B7800EB0310A0F80C2420E088
:10233000F80523D42068B0F850500B78022202EB45
:10234000C302AB1808EB4302805A8A69C0F3090044
:1023500082420CD9121A8A610BD04A6902444A613E
:10236000CA691044C861206801F03AF90AE0C1F86E
:1023700018B009782046FEF7A2F903E03A46204655
:10238000FEF777FA2068B0F8441009043FF540AE34
:102390000020BDE8F88F70473EB50C460021019142
:1023A00040F080000C4D8DF804000A46029108218F
:1023B0002846FEF7C9F864200090022302AA01A96A
:1023C0000648FFF727FC012208212846FEF7BCF843
:1023D0009DF8090020703EBD0010004870010020EB
:1023E000F8B515460E460B460092044600224FF4FF
:1023F000C05100F019F888B93346002280212046E8
:10240000009500F081F848B9334600224FF4C061CE
:102410002046009500F008F8002804D0206E40F017
:10242000200020660320F8BD2DE9FE4F4FF0000A82
:10243000984617460E4604460C9D8DF804A0FEF7FC
:1024400089F8411BA8EB0105FEF784F88146206856
:102450004FF4C06B0C3002902A480068C0EBC000FB
:1024600000EB8000000D6843009043E05E4506D11C
:102470002FB9029800788DF804009DF80400B8F197
:10248000FF3F37D0FEF766F8A0EB0900A84203D261
:1024900015B1009858B32BE02068416821F0E001A5
:1024A00041606068B0F5827F0BD1A068B0F5004F45
:1024B00002D0B0F5806F04D12068016821F040019E
:1024C0000160A06AB0F5005F09D12068016821F4BD
:1024D000005101602068016841F400510160012051
:1024E00084F85D0084F85CA00320BDE8FE8F002521
:1024F000401E0090206880683040B842B6D100206D
:10250000F3E70000600000202DE9F8431E469146E5
:1025100088460446089DFEF71DF8401B351AFEF755
:1025200019F8074625480068C0F3CB30684338E007
:10253000701C37D0FEF70EF8C01BA84203D215B1AD
:10254000009860B32CE02068416821F0E001416010
:102550006068B0F5827F0BD1A068B0F5004F02D063
:10256000B0F5806F04D12068016821F0400101605E
:10257000A06AB0F5005F09D12068016821F400511C
:1025800001602068016841F400510160012084F875
:102590005D00002084F85C000320BDE8F88300257E
:1025A000401E00902068816838EA010004D00021B4
:1025B0004945BDD10020F0E70121F9E76000002086
:1025C0007047FDF7CDBF30B59FB028216846FDF7B5
:1025D00051FE142119A8FDF74DFE3C210AA8FDF774
:1025E00049FE01210804CDE90010002402940225CF
:1025F0000491CDE90750000109906846FEF7BAFE44
:1026000008B172B6FEE70F20CDE919054FF48060DE
:10261000CDE91B40012119A81D94FEF7D1FD08B199
:1026200072B6FEE74FF400300A90400118900AA8F5
:10263000FEF7BAFC002801D072B6FEE71FB030BD2D
:102640000248016841F470010160704788ED00E0C4
:1026500010B5D0F8B42252689047002010BD134640
:1026600010B50A46002100F027FB002010BD1346DC
:1026700010B50A46002100F0BAFB002010BD10B5CD
:102680000446802100F098FB2046BDE81040002160
:1026900000F092BB10B505210023C0F894121A4631
:1026A000194600F009FB002010BD10B50223C261DD
:1026B000C0F89432026213460A46002100F097FBEC
:1026C000002010BD10B504210023C0F894121A4652
:1026D000194600F08CFB002010BD000010B50A4622
:1026E000024903A000F0E2F8004810BD980700205E
:1026F00048494420436F6E666967000012200880D5
:10270000004870472400002010B50A46024903A083
:1027100000F0CCF8004810BD98070020484944203C
:10272000496E74657266616365000000042008806C
:10273000004870472000002010B50A46024903A057
:1027400000F0B4F8004810BD9807002053544D69BC
:1027500063726F656C656374726F6E69637300009A
:1027600010B50A46024903A000F0A0F8004810BDC9
:102770009807002053544D33322048756D616E2008
:10278000696E7465726661636500000010B51A2099
:1027900008800A480168001D0468001D00680818C8
:1027A00009D008220649FFF77BFB054904221031B6
:1027B0002046FFF775FB0248801E10BDACF7FF1FD7
:1027C0003A000020F8B504460020ADF80000488823
:1027D0000D46010A082948D2DFE801F0470409172D
:1027E00047473C45D4F8B012207C0A6819E0207CA9
:1027F00002260028D4F8B40205D0C16A684688478A
:10280000014646703EE0816AF8E7C0B206282CD245
:10281000DFE800F0030A1014181CD4F8B002426874
:1028200005E0694690471CE0D4F8B0028268E2B146
:10283000207CF6E7D4F8B002C268F8E7D4F8B0021A
:102840000269F4E7D4F8B0024269F0E7D4F8B002C4
:102850008269ECE7207C40B9D4F8B402416B684649
:10286000884701460EE0207C20B129462046FFF72C
:1028700006FFF8BDD4F8B402016B684688470146EC
:1028800007204870BDF8000048B1EA8852B1824282
:1028900000D90246ADF800202046FFF706FFE88881
:1028A0000028E6D12046FFF70DFFF8BD70B50023E4
:1028B00000281ED00446002502E06D1CEDB2641C09
:1028C0002678002EF9D1022404EB450414801278F6
:1028D000CA545B1C0322CA5400245B1C06E0CA5481
:1028E0005B1CDAB28C54521CD3B2401C0278002A12
:1028F000F5D170BD01004FF0000004D0012901D0D6
:10290000022901D00220704701207047D0F8B80298
:10291000002101730846704770B50446812100F01C
:10292000CDF80025E562D4F8B80218B100F02FFC0C
:10293000C4F8B852002070BD0A21018000487047D9
:10294000180100202221018000487047A0000020CB
:102950002221018000487047C4000020222101800C
:1029600000487047E800002010B504460423032205
:10297000812100F095F90120E062102000F008FCB0
:10298000C4F8B80218B100210173084610BD022036
:1029900010BD10B5134690F89C42D0F8B822032C15
:1029A00007D1147B2CB9012414730A46812100F04D
:1029B0001EFA002010BD000038B503460022D0F8F2
:1029C000B802ADF8002014460A7812F0600216D062
:1029D000202A4AD14A78022A0ED0032A06D00A2A8F
:1029E00006D00B2A41D18978016042E001222BE018
:1029F0004988090A41603CE00122011D25E04A782E
:102A000032B1062A0BD00A2A23D00B2A2DD128E076
:102A100093F89C02032828D10222694615E04888D1
:102A20002222B2EB102F05D1CA884A2A00D94A22A5
:102A3000124809E02122B2EB102F16D10F48CA88A4
:102A40001838092A00D9092201461846FFF72DFE39
:102A50000FE093F89C22032A07D1012200F108011C
:102A6000F3E793F89C22032A05D01846FFF707FEE8
:102A70000224204638BD89788160FAE724010020CD
:102A800010B580B1D0F8B43213B10023C0F8B4321D
:102A900009B1C0F8B012012180F89C12027000F058
:102AA000BBF8002010BD022010BD10B5D0F8C00248
:102AB000FDF73EFEBDE81040FFF71CBF10B5D0F893
:102AC000C002FDF70FFEBDE81040FFF713BF2DE970
:102AD000F0411746044651B1D4F8B40242691AB124
:102AE00094F89C02032851D00220BDE8F081D4F86C
:102AF0009432002504F11400022B03D0042B3AD0A9
:102B0000C3B33CE0D0E903639E4207D9F11AC16028
:102B10008AB239462046FFF7AAFD12E08068B0FB72
:102B2000F3F103FB110199B9984211D3D4F898122B
:102B300088420DD2002211462046FFF798FDC4F8C6
:102B4000985200231A461946204600F0B5F816E0C0
:102B5000D4F8B402C16829B194F89C02032801D1C9
:102B6000204688478021204600F026F92046FFF7BE
:102B700091FD04E0FFE78021204600F01DF994F864
:102B8000A002012804D184F8A05201E02046904719
:102B90000020AAE770B51546044649B1D4F8B4023E
:102BA00082691AB194F89C02032830D0022070BDCB
:102BB000D4F8941204F5AA70032902D005291ED076
:102BC00027E0D0E903218A420BD9531AC360084693
:102BD000834200D303469AB229462046FFF73FFDC1
:102BE00017E0D4F8B402016929B194F89C020328D3
:102BF00001D1204688472046FFF764FD09E0002008
:102C00000146C4F89402204600F0D6F801E02046C0
:102C10009047002070BD000010B517490446C1F868
:102C2000E802C0F8C0121548086008204860022079
:102C3000886008610020886108620846FEF7C4F8D1
:102C400008B1FDF773FB0022D4F8C0021823114627
:102C500004F53074FDF714FD58230022802120680C
:102C6000FDF70EFD4FF48073002281212068FDF7EF
:102C700007FD002010BD0000AC040020005C0040F7
:102C80000A0601F07F01D0F8C00201EB810100EBE0
:102C9000C10002D590F82A00704790F86A01704789
:102CA00010B51C461346D0F8C0022246FDF779FF46
:102CB000BDE81040FFF71EBE10B5D0F8C002FDF70A
:102CC000A0FFBDE81040FFF715BE70B50022044616
:102CD00040231146FFF7E4FF40260125C4F8646154
:102CE0003346002280212046C4F85851FFF7D8FF10
:102CF0006662A56184F89C520020C4F8940260606A
:102D0000C4F8A402D4F8B80228B1D4F8B40200215F
:102D1000426820469047002070BD90F89C1204291C
:102D200003D190F89D1280F89C120020704710B5D6
:102D300090F89C12032904D1D0F8B412C96901B1EA
:102D40008847002010BD01740020704710B5D0F8EE
:102D5000C002FEF7E2F8BDE81040FFF7CBBD70B54A
:102D6000044600F52A70054600F04AF80120C4F830
:102D70009402B4F8AE02C4F8980294F8A80210F0D5
:102D80001F010AD001290DD0022910D000F08001C6
:102D9000204600F011F8002070BD2946204600F0C2
:102DA0009EF8F8E72946204600F0CAF9F3E72946DD
:102DB000204600F01DF9EEE710B5D0F8C002FDF78F
:102DC00039FFBDE81040FFF795BD10B5D0F8C0023F
:102DD000FEF7BEF8BDE81040FFF78CBD90F89C12DE
:102DE00080F89D12042180F89C120020704710B5D5
:102DF000D0F8C002FDF74EFFBDE81040FFF77ABDE6
:102E00000A7802704A7842708A78CB7802EB032203
:102E100042800A794B7902EB032282808A79C97950
:102E200002EB0121C18070470246002011B1C2F8B7
:102E3000B41270470220704710B5D0F8B4220224B3
:102E40001AB11268904700B90024204610BD000056
:102E500070B50E461E4D897804462970012931D877
:102E600094F89C0202280BD003280FD0314620464C
:102E7000FFF705FC29782046BDE87040FFF7E8BB66
:102E8000D9B10320616084F89C0209E071B16068E7
:102E9000884212D0C1B22046FFF7DAFB2978616080
:102EA0002046FFF7C9FF02280CD006E0022084F874
:102EB0009C0220466160FFF7CBFB2046BDE87040D6
:102EC000FFF700BC31462046BDE87040FFF7D7BB96
:102ED0006400002010B5FFF778FF002010BD2DE939
:102EE000F0410A78002612F0600208D0202A01D0B2
:102EF000402A70D1D0F8B422926890476DE04B78A8
:102F0000002201250A2B66D2DFE803F0405D6557F9
:102F1000650805652C29FFF755FC5EE004468888A6
:102F2000D8B9C888C8B94888802816D200F07F0769
:102F300094F89C02032810D084F89E7239462046EB
:102F4000FFF704FF2046FFF7BDFB1FB1022084F806
:102F50009C0242E084F89C523FE020463BE0FFF7B1
:102F600077FF3AE0CB88012B35D190F89C32012BCA
:102F700004D0022B02D0032B2DD104E08260012269
:102F800000F1080116E00122011D13E090F89C22D7
:102F9000012A03D0022A01D0032A1CD1CA88022A9E
:102FA00019D1C560D0F8A41209B10321C160022271
:102FB00000F10C01FFF779FB0FE0498801290CD1E2
:102FC000C0F8A45211E090F89C32012B08D0022BDB
:102FD00006D0032B04D0FFF752FB3046BDE8F0814A
:102FE00049880129F9D1C0F8A422FFF76BFBF4E767
:102FF0002DE9F0410A46044610780027097910F0BF
:1030000060030AD0202B01D0402B50D1D4F8B40259
:1030100011468368204698478FE0C0F3411001288D
:1030200006D05078D0B301282AD003283FD107E03A
:10303000D4F8B402114683682046BDE8F041184731
:1030400094F89C02022802D0032872D10AE071B3DE
:1030500080296ED02046FFF7AFFE80212046FFF783
:10306000ABFE6AE0508838B931B1802904D0D088ED
:1030700010B92046FFF7A0FE2046FFF723FB5CE0D7
:1030800094F89C020228E2D0032852D1508898BBC1
:103090004806F1D02046FFF708FDEDE7FFE794F87A
:1030A0009C020026022803D0032842D112E040E00F
:1030B00009B180293DD1080601F07F0000EB8000B6
:1030C00004EB800101D5143101E001F5AA7102225F
:1030D0000E602AE0080601F00F0000EB800004EB10
:1030E00080000AD5806920B301F07F0000EB8000EA
:1030F00004EB800514350BE01FE0D0F85801C0B197
:1031000001F07F0000EB800004EB800505F5AA7557
:1031100041B1802906D02046FFF7B2FD10B1012051
:10312000286000E02E60022229462046FFF7BDFA03
:1031300003E011462046FFF7A2FA3846BDE8F081C9
:1031400070B5054608780C4610F0600003D02028C2
:1031500001D0402816D195F89C02012803D00228FE
:1031600001D003280ED1207901280BD8D5F8B4025C
:10317000826828469047E188014306D12846FFF738
:10318000A1FA02E02846FFF77AFA002070BD7047E6
:1031900000487047980400202DE9F0470C7800267D
:1031A00030F8243048F68F121340CA78002A7CD0B9
:1031B000012A7BD0022A02D0032A78D0012648F2C5
:1031C0008002134320F824300D7830F8254048F66B
:1031D0008F731C402C43144320F825400F7B48F28A
:1031E000C00548F6BF744CF2800C4BF68F79EFB3F4
:1031F000CF7891F80080022FC24630F828707DD039
:1032000048F68F6807EA080757EA020720F82A708D
:10321000B0F8507091F80080074407EB0817B1F838
:10322000088028F00108A7F80084B0F8507091F8E1
:103230000080074407EB0817B1F80A8028F001085E
:10324000A7F808844F7891F80080002F30F8287094
:103250004FEA47477ED0002F06DA30F828701F402B
:1032600047EA0C0720F828700F7800E031E030F8CA
:1032700027C05FEA4C6C07D530F827C00CEA030C76
:103280004CEA050C20F827C0CB780D78012B30F8DC
:10329000253003EA040301D083F02003134320F810
:1032A00025300B7830F8231002E009E00EE00AE048
:1032B00001EA0901114320F823103046BDE8F087E8
:1032C00043F400737BE743F4C06378E743F480631F
:1032D00075E74F784FB3B0F8507091F800C00744CD
:1032E00007EB0C17B1F806C02CF0010CA7F800C4CE
:1032F00091F800C030F82C707F0600E05CE005D546
:1033000030F82C701F402F4320F82C70CB78012B05
:1033100006D00B7830F82310214081F02001C9E756
:103320000B7830F823102140C4E7B0F850400D78F6
:10333000044404EB0514CD8825F00105A4F80854D5
:10334000B0F850400D78044404EB051404F20C442A
:103350000D6900E036E055B13E2D10D86F08ED073D
:1033600000D07F1C4FF6FF7505EA87250FE0258802
:1033700025F4F8452580258845F4004507E06F09C8
:10338000ED0600D17F1E4FF4004545EA87252580D4
:103390000D7830F82540640406D530F825401C40EF
:1033A00044EA0C0420F825400B7830F8231001EA99
:1033B000090181F440517DE71F4048F2801847EA37
:1033C000080723E7002F06DA30F828701F4047EA85
:1033D0000C0720F8287091F800C030F82C707F0698
:1033E00005D530F82C701F402F4320F82C700D7835
:1033F00030F8253003EA090383F44053134320F8DF
:1034000025308DE72DE9F04391F80C804F780A784C
:1034100048F6BF7C4BF68F7948F2800348F2C0052E
:103420004CF2800648F68F74B8F1000F28D0002FB8
:1034300030F822704FEA474748D0002F05DA30F8BD
:1034400022702740374320F822700A7830F8227023
:103450007F0605D530F8227027402F4320F82270D0
:103460000D7830F825202240324320F825200C78B2
:1034700030F8242002EA0C021A4320F824201AE033
:103480007FB130F82260760605D530F822602640FC
:103490002E4320F822600A7830F8221001EA0C014D
:1034A0000EE030F822506D0405D530F8225025404A
:1034B000354320F822500A7830F8221001EA090139
:1034C000194320F822100020BDE8F083002F05DA10
:1034D00030F822702740374320F822700A7830F8FD
:1034E0002260760605D530F8226026402E4320F86B
:1034F00022600E7830F8262022402A4320F8262029
:103500000C7830F8242002EA09021A4320F824201B
:10351000C1E700207047012120F8401F00210180F1
:10352000818001820846704730F8401F21F43F41F6
:1035300001800020704730B50A7BB2BB4A7848F65C
:103540008F7548F28004C2B10B7830F82320520600
:1035500007D530F823202A4048F2C0052A4320F836
:103560002320CA78012A20D00A7830F8221048F6A1
:10357000BF73194081F0200114E00A7830F822303E
:103580005B0407D530F822302B404CF280052B43EA
:1035900020F822300A7830F822104BF68F73194049
:1035A00081F44051214320F82210002030BD10B595
:1035B0004A780978002A48F2800330F8212005D0A3
:1035C00048F6BF74224082F0100204E04BF68F747C
:1035D000224082F480521A4320F82120002010BD9E
:1035E0002DE9F0470D464B78097B04464FF0000962
:1035F00048F68F7248F2800A4FF6FF774FF4004882
:10360000012B09D000297DD0E87802287BD0012841
:103610007AD00120BDE8F087AE692869864200D9DA
:10362000064691B1E97802291ED0286A801B2862DB
:10363000287834F820104906B4F85010214401EBE2
:1036400000106ED5A0F80C64F0E0B3B2EA88204612
:10365000696900F039FAB4F850002978204400EB89
:103660000110A0F80464E7E0296A814275D929783D
:1036700034F82100104048F28012104324F8210051
:10368000286A801B2862287834F820104906697857
:1036900076D511B1012921D027E0B4F8501021448A
:1036A00001EB001000F20C404EB13E2E0FD8710815
:1036B000F20700D0491C07EA8121018015E001884A
:1036C00021F4F8410180018841F40041F5E77109D6
:1036D000F20600D1491E48EA8121EEE7B4F85020F5
:1036E000111901EB0010A0F80C646A89B3B22046EE
:1036F000696900F0E9F96869304468612969286AF4
:10370000884202E0CCE0EBE055E102D9801B286260
:1037100002E00646C5F82090687818B1012824D048
:103720002BE028E0B4F850002978204400EB011089
:1037300000F204404EB13E2E10D87108F20700D0BE
:10374000491C07EA8121018017E0018821F4F84132
:103750000180018841F40041F5E78CE07109F2062F
:1037600000D1491E48EA8121EDE7B4F850002978DC
:10377000204400EB0110A0F804642A8957E0FFE719
:1037800011B1012921D027E0B4F85010214401EBF8
:10379000001000F204404EB13E2E0FD87108F2071F
:1037A00000D0491C07EA8121018015E0018821F43D
:1037B000F8410180018841F40041F5E77109F20602
:1037C00000D1491E48EA8121EEE7B4F850102144A7
:1037D00001EB0010A0F804642A89B3B2204669699D
:1037E00000F072F96869304468612969286A884282
:1037F00002D9801B286202E00646C5F8209068784E
:1038000010B1012830D011E0B4F8500029782044DC
:1038100000EB011000F20C40BEB13E2E1DD8710825
:10382000F20700D0491C07EA812101806A89B3B2FE
:103830002046696900F048F9297834F8210048F6F3
:10384000BF72104080F0300008E1018821F4F84197
:103850000180018841F40041E7E77109F20600D1D7
:10386000491E48EA8121E0E7B4F850100819297888
:1038700000EB0110E6E62A7834F8220048F68F6360
:10388000184040EA0A0024F82200B4F850002A78D0
:10389000204400EB02108BB2A0F804342A89C7E759
:1038A000A9692869814202D9091AA961B4E00846C8
:1038B000C5F81890B0E0088820F4F840088008881F
:1038C00040F400400AE03E2874D84208C00700D007
:1038D000521C07EA822001E048EA82200880B5E015
:1038E00093B9B4F850002978204400EB01102969FD
:1038F00000F2044069B13E2913D84B08C90700D033
:103900005B1C07EA83210180687888B1012832D0E6
:103910003AE0018821F4F8410180018841F4004136
:10392000F1E74B09C90600D15B1E48EA8321EAE7AB
:10393000B4F850002978204400EB0110296900F206
:103940000C4049B13E290FD84B08C90700D05B1C79
:1039500007EA8321018017E0018821F4F841018002
:10396000018841F40041F5E74B09C90600D15B1E0F
:1039700048EA8321EEE7B4F850100819297800EBE3
:103980000110298AA0F80C14E869A8B3297834F842
:103990002100430401D5430603D444F240031842F6
:1039A00054D134F82100104048F2C002104324F8EA
:1039B00021004BE03CE0A9692869814202D9091A3B
:1039C000A96102E00846C5F818908BB9B4F8501008
:1039D0002A78214401EB021101F2044168B13E282A
:1039E00013D84208C30700D0521C07EA82220A807B
:1039F000697889B1012921D028E00A8822F4F842A7
:103A00000A800A8842F40042F1E74209C30600D165
:103A1000521E48EA8222EAE7B4F850102A7821447C
:103A200001EB021101F20C4100287FF44CAF42E798
:103A30004209C0067FF450AF521E4DE7B4F8502043
:103A400011192A7801EB0211A1F80C04297834F835
:103A500021004BF68F72104080F4405040EA0A007B
:103A600024F821000020D5E50021A0F844104FF4EF
:103A70003F41A0F840100020704700000148FDF7CA
:103A800023B90000AC040020B0F8440070470000E7
:103A900010B500EB42005C0800F5806009D000BF63
:103AA00030F8042B01F8012B120A01F8012B641ED7
:103AB000F6D1DA0701D00088087010BD11B9802155
:103AC000A0F84C100020704710B55B1C00EB4200C2
:103AD0005B0800F5806009D011F8012B11F8014B4B
:103AE00042EA042220F8042B5B1EF5D110BDFEE74C
:103AF0000907090E002804DB00F1E02080F800141B
:103B0000704700F00F0000F1E02080F8141D7047AE
:103B100002E008C8121F08C1002AFAD17047704796
:103B2000002001E001C1121F002AFBD170470000F4
:103B300088B0FCF71DFDFEF746FDFEF7CDF9FEF758
:103B400039FAFEF711FA2BA02B4C006806900022E0
:103B500008212046FCF7F8FC6423022206A9274826
:103B6000FDF794FF012208212046FCF7EDFC244DCF
:103B700000244FF4967600BF8DF800408DF8044085
:103B80008DF808408DF80C4069462820FEF704FCAB
:103B900001A92920FEF700FC02A92A20FEF7FCFB60
:103BA00003A92B20FEF7F8FB9DF800009DF80410F8
:103BB0009DF80C2040EA01209DF8081000B241EA6F
:103BC000022109B291FBF6F140420494059490FB66
:103BD000F6F02A788DF810208DF811108DF812006B
:103BE000052204A90748FEF7D4FE2C700A20FCF732
:103BF0009FFBC1E7200F000000100048700100206B
:103C000000000020D4010020020304050607080973
:103C10000A0B0C0D0E0F1010010203040506070815
:103C2000090A0B0C0D0E0F10000000000000000030
:103C30000102030406070809583C000800000020A0
:103C400070010000CC020008303D00087001002027
:103C500028280000203B00084113FD2614082D27CA
:103C60001B0839041A61041A8D041ADD141A090894
:103C7000170403090412013202164083042B57264D
:103C80000201020301031A1A03191F1182105312B1
:103C90007A1369291B0819041AB904819A0D0C8139
:103CA0001A51141A45041A5D041A3904140902221F
:103CB0001301011DE0320904591403010215092101
:103CC00011011401224A160705810304220A091F63
:103CD000240A21072429486912314B0A06F429CC09
:103CE000100A05010902A1010901A110080509191D
:103CF00001290315180F250195037501810295010E
:103D00007505810120281730093109381581257F73
:103D1000750895038106C0093C05FF090129200E9D
:103D200075019502B12275069501B101C000000030
:040000050800018965
:00000001FF
